:020000040800F2
:10000000880B0020B50100084B4D0008F3410008A3
:10001000494D00087D1900087153000800000000D8
:10002000000000000000000000000000694E000811
:10003000F3190008000000004D4D00086B4E000849
:10004000CF010008CF010008CF010008CF01000850
:10005000CF010008CF010008F5190008CF01000802
:10006000CF010008191A00081F1A0008CF01000864
:10007000CF010008CF010008CF010008BD1900081A
:10008000CF010008CF010008CF010008CF01000810
:10009000CF010008CF010008CF010008251A000891
:1000A000CF010008CF010008CF010008CF010008F0
:1000B000F94E0008054F0008114F0008CF01000855
:1000C000CF010008CF010008CF010008CF010008D0
:1000D000CF01000865530008CF010008CF010008D8
:1000E000FB190008CF010008CF01000800F002F85A
:1000F00000F050F80AA090E8000C82448344AAF172
:100100000107DA4501D100F045F8AFF2090EBAE86F
:100110000F0013F0010F18BFFB1A43F0010318473B
:100120003C7500005C750000103A24BF78C878C1A7
:10013000FAD8520724BF30C830C144BF04680C60ED
:10014000704700000023002400250026103A28BF35
:1001500078C1FBD8520728BF30C148BF0B60704739
:10016000662907F0ED81642900F0A880782900F065
:10017000E180632900F05D84002070471FB500F026
:1001800065FC04000020002106F0F0FFE0601FBDC8
:1001900010B510BD00F056FD1146FFF7EFFF05F05A
:1001A000DFFE00F074FD03B4FFF7F2FF03BC00F0C4
:1001B000B7FD00000948804709480047FEE7FEE711
:1001C000FEE7FEE7FEE7FEE7FEE7FEE7FEE7FEE707
:1001D00004480549054A064B70470000F54E0008E3
:1001E000ED00000888050020880B0020880700200B
:1001F000880700200FB41CB5074B06AA7B4469464C
:100200000090059800F0F3FB0020694600F002FC26
:100210001CBC5DF814FB00001508000070B5044616
:1002200085690068C10601D5302600E02026C00798
:1002300007D070BDD4E9012130469047206A401CA8
:1002400020626D1EF6D570BD70B5044685690078D4
:10025000C00707D170BDD4E9012120209047206A52
:10026000401C20626D1EF6D570BD70B50C4605466B
:10027000012A05D02878800600D5EA69002302E02B
:10028000012305E05B1C934202D2E05C0028F9D117
:10029000A869E618C01AA861286A18442862284686
:1002A000FFF7BCFF04E0D5E9012114F8010B9047EA
:1002B000B442F8D32846FFF7C7FF70BD2DE9F041DF
:1002C0000646002410687529314616A510D0AFF3F4
:1002D0000080002802DA404213A507E031688A074F
:1002E00001D512A502E0490704D511A5012401E0BA
:1002F000AFF3008000210A2206F1240709E0B0FBD9
:10030000F2FCB0FBF2F302FB1C00303078541846CC
:10031000491C0028F3D123462A463046BDE8F04167
:1003200000F0FAB8000000002D0000002B000000D3
:100330002000000070B504460D4621461068AFF35A
:1003400000802188090502D50F4A7A4402E00E4A4E
:100350007A440E32002104F1240305E000F00F0678
:100360000009965D5E54491C0028F7D120780023CF
:10037000000704D5702D02D009B1022311322046A6
:10038000BDE8704000F0C8B83E7200002DE9F05F93
:10039000894604464FF0000ADFF824B1FB44C0F858
:1003A00020A02046E168884700287DD0252806D077
:1003B000D4E901219047206A401C2062F1E7002522
:1003C0005F462046E16888472028064607DB312E35
:1003D00005D2B81910F8200C08B10543F1E7A807B9
:1003E00001D525F00405C4F81CA00027C4F818A006
:1003F0002A2E09D0304605F0AFF838B304EB870851
:10040000303EC8F8186019E059F8041B204604EB88
:1004100087029161E1688847012F064618D1E0699B
:10042000002820DA25F020051DE0D8F8180000EBA0
:10043000800006EB40003038C8F818002046E1681C
:100440008847064605F088F80028EED1012F0AD02B
:100450002E2E08D12046E16888477F1C0646022FD1
:1004600045F02005C4DBA069002803DA404245F0CE
:100470000105A061E80701D025F01005A6B1A6F19D
:100480004100192802D8203645F400654A46314615
:10049000204625604D46FFF763FE60B1012807D076
:1004A000ED1D25F0070000E007E000F1080978E7FE
:1004B00005F1040975E730467AE7206ABDE8F09F48
:1004C000147200004FF0000200B5134694469646A1
:1004D000203922BFA0E80C50A0E80C50B1F1200157
:1004E000BFF4F7AF090728BFA0E80C5048BF0CC005
:1004F0005DF804EB890028BF40F8042B08BF704763
:1005000048BF20F8022B11F0804F18BF00F8012BD4
:1005100070477047704770472DE9F0470D46994680
:100520009246044600F124080168880604D5E06973
:1005300021F01001216000E00120A84201DD471BED
:1005400000E00027A1697A1902EB0900081AA061EE
:100550002078C00602D42046FFF760FE002608E09F
:10056000D4E901211AF806009047206A401C761C45
:1005700020624E45F4DB2078C0060AD52046FFF7FE
:100580004DFE06E0D4E9012130209047206A401C4E
:100590002062381EA7F10107F4DC07E0D4E901214D
:1005A00018F805009047206A401C2062281EA5F11B
:1005B0000105F3DC2046FFF747FE2078000602D550
:1005C0000220BDE8F0870120FBE770472DE9FF4FCF
:1005D0000C461E464FF0FF378BB0D2E90001DDF824
:1005E00060800A908A46C1F30A5505B93D4600214C
:1005F00008464FF00000BAF1000F00F4400005DAA1
:1006000000EB80004FF4400101EA50004FEA90599E
:10061000B9F1010F00DDB9460A9850EA4A000ED040
:1006200044F61050A5F2FF3545432F14B8F1000FE2
:100630001ED07542291E1EDDC9F100021CE0B8F172
:10064000010F4FF0000001D0302103E0F24305E03C
:100650002154401CB042FBDB3046002200212154D3
:100660000B99C1F80880C1E900200FB0BDE8F08FF8
:10067000BD1B6D1CDEE74A4600DA694206A800F0A1
:100680006FFA06AB93E8070003AB83E80700504618
:100690000A9900F04CFB8DE80700A0F500501F38C8
:1006A00000900398002D09DD42F21F014A460844DC
:1006B00003A90390684600F0ABFD08E0A0F50050E8
:1006C0004A461F3803A90390684600F0B5FD8DE83F
:1006D00007000004000C03D04FF0FF30410800E099
:1006E0001046B8F1000F03D00022009215461EE01C
:1006F000751E05D400F0AEF9303262556D1EF9D585
:10070000B3460122084302D000227F1C04E0207877
:10071000302801D100227F1E002A099786D01DE0D3
:10072000112D07DA00F096F9303262556D1C50EA4F
:100730000102F5D1084302D00098C8B10EE00021B3
:10074000681E05E0235C625C63542254401E491C11
:100750008142F7DBAB46A81B401E0990002004F83D
:100760000B000B98099AC0F80880C0E9002B7CE7C1
:1007700011264FF0000859E72DE9F04F884604464E
:10078000D21D22F0070191B0D1E90001CDE90A01A3
:1007900004F0BEFE02460B98C00F01D02D2007E0EA
:1007A0002068810701D52B2002E0202101EAC0004A
:1007B000032A099001D0072A05DB0346414620465B
:1007C00000F08EF90BE12078800601D5E06900E0A9
:1007D0000620B8F1650F814606D0B8F1660F18D033
:1007E000B8F1670F70D131E00020B9F1110F00901E
:1007F00001DB112301E009F101030AAA01A90CA8F8
:10080000FFF7E4FEDDE90C70002609F101058346DF
:1008100047E001204B4600904FF000470AAA01A98B
:100820000CA8FFF7D3FEDDE90DB00C995D4600265C
:1008300010B909F101000D18B9EB050003D4C0F19E
:10084000FF3609F10105A5EB09002BE0B9F1010F15
:1008500001DA4FF001090020B9F1110F009048466C
:1008600001DD112300E003460AAA01A90CA8FFF745
:10087000ADFEDDE90C704D4600268346207800076A
:100880000AD4AB4500DA5D4601A8012D04DD41190B
:1008900011F8011C302907D04F4502DA17F1040F77
:1008A00004DA012082460FE06D1EEEE7002F02DC25
:1008B000ED1B3E4403E0781CA84200DD7D1CB81B04
:1008C00000F1010A4FF000472078000703D4AA4541
:1008D00001DB4FF0FF3A0021B7F1004F0DF1430863
:1008E0008DF8431024D002202B23002F01DA7F4201
:1008F0002D230A21021EA0F1010000DC5FB197FB4D
:10090000F1FC97FBF1F201FB1C7C17460CF1300C5B
:1009100008F801CDEEE7A8F1010003702188090570
:1009200001D5452100E06521A0F1010800F8011C76
:1009300009980FA9A1EB0807FF1D00B1012041197B
:1009400001EBEA70A1693844081A401EA0612078C2
:10095000C00602D42046FFF761FC099828B1D4E90B
:1009600001219047206A401C20622078C00622D5D1
:100970002046FFF753FC1EE0002E04DBB34502DDEA
:1009800001A8805D00E03020D4E901219047206A71
:10099000401C2062761CAAF101005FEA000A0AD11D
:1009A00000F054F8C0680168405CD4E90121904728
:1009B000206A401C2062281EA5F10105DCDC07E04E
:1009C000D4E9012118F8010B9047206A401C2062ED
:1009D000381EA7F10107F3DC2046FFF735FC0320A2
:1009E00011B043E601694A1C02610878704700B5FE
:1009F0008FB0CDE901310021059105497944CDE958
:100A0000031011466846FFF7C1FC0FB000BD00009F
:100A1000E5FFFFFF0A6802F8010B0A60704710B596
:100A2000436913B1AFF3008001E0FFF71EFC012022
:100A300010BD127800F124010A7000224A700122D0
:100A4000EDE711684FF0FF32E9E70000004870471A
:100A50004805002030B5B0F10A024FEA900E71F15E
:100A600000034EEA817EB0EB0E0061EB91014FEA8C
:100A7000101E4EEA017E10EB0E0041EB11114FEA01
:100A8000102E4EEA016E10EB0E0041EB11214FEAE1
:100A9000104E4EEA014E10EB0E0041EB1141401892
:100AA00041F100014FEAD00040EA41704FEAD10124
:100AB00010EB80054FEA810444EA907444EB010492
:100AC0006D1944EB0404521BA3414FF0000348BFCF
:100AD0000A3200D530BD401C41F1000130BD00009C
:100AE0002DE9F0411F46044603260168072A01F458
:100AF000006004DB08B116A505E016A503E008B107
:100B000015A500E015A521F010002060A069C01E09
:100B1000A0610FB1401EA0612046FFF77FFB4FB1DF
:100B2000D4E9012138469047206A401C2062C01C4D
:100B3000206206E0206AFAE7D4E9012115F8010BEA
:100B40009047761EF8D22046FFF77EFBBDE8F08185
:100B50004E414E006E616E00494E4600696E660061
:100B60002DE9F047814616468AB0334878440DC8CF
:100B70008DE80D0030487844801C03AC0DC884E833
:100B80000D0041F69B300844372190FBF1F290FBB9
:100B9000F1F5A5F1800501FB12041B3C02D564426E
:100BA000012000E00020DFF890A080460027FA44F2
:100BB000AAF1BE0A0DE0E00709D03246684607EB0D
:100BC00047010AEB810100F037FB8DE80700641054
:100BD0007F1C002CEFD1184F7F44AC3F18E0E80792
:100BE00014D007EB04100DF1180A90E80E008AE803
:100BF0000E00C068F04201D198190890324606A94B
:100C000003A800F019FB03AB83E807006D10641C18
:100C1000002DE4D132466946B8F1000F03A802D096
:100C200000F0F6FA01E000F007FBC9E90001C9F89D
:100C300008200AB0BDE8F087D46A00000048704779
:100C4000280500207546FFF7F9FFAE460500694606
:100C5000534620F00700854618B020B5FFF7B8FAD4
:100C6000BDE820404FF000064FF000074FF00008AD
:100C70004FF0000B21F00701AC46ACE8C009ACE82E
:100C8000C009ACE8C009ACE8C0098D46704710B592
:100C90000446AFF300802046BDE81040FFF783BA5A
:100CA0004FF0013C50F8042B51F8043B9A4221D1FB
:100CB000A2EB0C03934313EACC1317D150F8042B87
:100CC00051F8043B9A4215D1A2EB0C03934313EA6B
:100CD000CC130BD150F8042B51F8043B9A4209D1A4
:100CE000A2EB0C03934313EACC13DBD04FF00000CC
:100CF000704700BFD01A01BAB1FA81F101F01801B2
:100D000022FA01F0CB40C1F12001DBB2C0B2C01A1F
:100D10002CFA01F3D11A914311EAC311E6D17047BD
:100D200001491820ABBEFEE72600020070475FEACB
:100D3000400C08BF91F0000F4FEA8C234FEAC1220C
:100D400043EA51514FEA1C5018BF00F5F0404FEAFA
:100D5000300018BF41F000415FEA6C5C00F0298070
:100D6000BCF1FF3F08BF40F080407047130C06BF46
:100D700012044FF0100C4FF0000C130E04BF1202BF
:100D80000CF1080C130F04BF12010CF1040C930FAB
:100D900004BF92000CF1020CD30F04BF52000CF1FF
:100DA000010C11464FF00002A0F11F00A0EB0C0057
:100DB000704711F0004F08BF704731F000413FF419
:100DC000D5AF0B0C06BF09044FF0100C4FF0000C10
:100DD0000B0E04BF09020CF1080C0B0F04BF090134
:100DE0000CF1040C8B0F04BF89000CF1020CCB0F2B
:100DF00004BF49000CF1010CCCF12003A0EB0C0066
:100E000022FA03F302FA0CF241EA030100F10100B5
:100E1000704720F07F4C80EA030023F07F47ACEB63
:100E2000070303F57C5300F0004003F1FF032DE9B5
:100E300080494FEA154B09B44FEA144325EA0B4E9B
:100E400024EA03480FF2042606EB132749083E78EC
:100E50005FEA320203FB0667C7F5000707FB06F6E9
:100E60004FEA54374FEAD64606F1020607FB066CF6
:100E7000CCF1005C4FEA1C472CEA074C07FB06F458
:100E80000CFB06F504EB15464FEA961634BF00201E
:100E90004FF000404FEAD13706FB07FC4FEA1C4CED
:100EA0000CFB0BF7D21B03FB0CF761EB07010CFBF0
:100EB0000EF7B0EB074072EB17420CFB08F734BF9C
:100EC000A2EB0742B2EB074261EB17414FEA0C4439
:100ED0004FEA910706FB07FC4FEA1C4C0CFB0BF793
:100EE000B0EBC74072EB573203FB0CF734BFA2EBF9
:100EF000C742B2EBC74261EB57310CFB0EF7B0EBC8
:100F0000C70072EB57720CFB08F734BFA2EBC702A5
:100F1000B2EBC70261EB5771039F4FEA816141EA6F
:100F2000921104EBCC044FEAD1374FEA826206FB00
:100F300007FC42EA90124FEA80604FEA1C4C0CFB1F
:100F40000BF7D21B03FB0CF761EB07010CFB0EF751
:100F5000B0EB074072EB17420CFB08F734BFA2EB73
:100F60000742B2EB074261EB17414FEA8C554FEA5B
:100F7000910704EB9C2406FB07FC4FEA1C4C0CFB7E
:100F80000BF7B0EBC74072EB573203FB0CF734BFE3
:100F9000A2EBC742B2EBC74261EB57310CFB0EF735
:100FA000B0EBC70072EB57720CFB08F734BFA2EB33
:100FB000C702B2EBC70261EB577115EB4C254FEA44
:100FC000816141EA92114FEA82624FEAD13742EAE7
:100FD000901206FB07FC44F100044FEA80604FEAE0
:100FE0001C4C0CFB0BF7D21B03FB0CF761EB07014E
:100FF0000CFB0EF7B0EB074072EB17420CFB08F747
:1010000034BFA2EB0742B2EB074261EB174115EB8D
:101010001C154FEA813141EA92414FEA823242EA9D
:1010200090424FEA80304FEA0C7644F1000448EADF
:1010300003434EEA0B484FF0000EB2EB080C71EB85
:10104000030724BF624639464EEB0E0E4FF0000BED
:101050000018524149414BEB0B0BB2EB080C71EB02
:1010600003077BF1000B24BF624639464EEB0E0EA0
:101070004FF0000B0018524149414BEB0B0BB2EB08
:10108000080C71EB03077BF1000B24BF6246394665
:101090004EEB0E0E51EA020718BF46F0010616EBA2
:1010A0000E7655F1000254F1000103D5BDE8890127
:1010B000BDE80088BDE88901BDE80048B619524185
:1010C00041EB0101A3F10103704780807F7E7D7CAD
:1010D0007B7A7978777676757473727171706F6ECA
:1010E0006E6D6C6C6B6A6A69686867666665646475
:1010F000636362616160605F5F5E5E5D5D5C5C5BFF
:101100005B5A5A595958585757565655555554546D
:10111000535352525251515050504F4F4F4E4E4DCB
:101120004D4D4C4C4C4B4B4B4A4A4A494949484817
:101130004847474747464646454545444444444357
:1011400043434342424242414141002B26D477006F
:1011500021D01CB54FEA370703B44FF010004FF011
:1011600010014FF000000FBCBDE810400BF1010B67
:10117000BBF1010F08BF5FEA170722BF12F101029E
:1011800011F101014FF0004143F1000300F0004074
:1011900043EA00007047F9D35708DAE746EA064603
:1011A00013F1400F4FEA16461FDD13F1200FDFBF8A
:1011B00016430A46002120335B42C8D0C3F1200702
:1011C00046EA064602FA07F74FEA164646EA0706D7
:1011D000C3F1200722FA03F201FA07F721FA03F11B
:1011E0004FF0000342EA0702B1E746EA020646EA88
:1011F00006464FEA164646EA0106BCBF46EA0646E0
:10120000360C4FF000034FF000024FF000019EE754
:101210002DE9C048934630B491E8380007C831EA58
:10122000400C48BF34EA430C03D5FFF7F2FDFFF74B
:101230008CFFF0BCBDE800882DE9C048934630B46F
:1012400091E8380007C810F0804F08BF13F0804FB6
:1012500003D100F005F8FFF778FFF0BCBDE8008887
:1012600020F07F4780EA030023F07F4C07EB0C035C
:10127000A3F57C5300F00040A3F1FE0392F0000FB1
:1012800000F0B38095F0000F00F077802DE9014960
:101290004FEA11404FEA144621EA004800FB06FCE1
:1012A00024EA064708FB06F607FB08F800FB07F7E9
:1012B00018EB06484CEB164C4FEA124B18EB07485C
:1012C0004FEA15464CEB174022EA0B4E0BFB06FC8F
:1012D00025EA06470EFB06F607FB0EFE0BFB07F79B
:1012E0001EEB064E4CEB164C4FF000061EEB074E65
:1012F0004CEB174B18EB0B0840F1000018EB0E0BF2
:1013000058EB000840F100008F1A4FF000013CBF7D
:10131000C943661B14BFB5EB040C00213CBFC94395
:10132000F61B4FEA17444EEA8E0E27EA04454FEAB1
:101330001C4704FB07622CEA074C05FB07F70CFB74
:1013400005F604FB0CFC16EB074642EB174216EBC6
:101350000C4642EB1C421BEB060658EB02024141D5
:1013600046EA9E0601D5BDE80189B619524141EB16
:101370000101A3F10103BDE801894FEA14454FEAD9
:10138000114724EA054621EA074C05FB07F406FB52
:1013900007F70CFB06F105FB0CFC11EB074144EBD6
:1013A00017444FEA124711EB0C4144EB1C4422EA6C
:1013B000074C05FB07F206FB07F70CFB06F605FBDF
:1013C0000CFC16EB074642EB174216EB0C4642EBC1
:1013D0001C456A1854F1000148BF7047B6195241C4
:1013E00041EB0101A3F10103704795F0000F37D0E5
:1013F0004FEA11424FEA144721EA024624EA074C19
:1014000002FB07F106FB07F70CFB06F402FB0CFCE2
:1014100014EB074441EB17414FEA154714EB0C441A
:1014200041EB1C4125EA074C02FB07F506FB07F7D9
:101430000CFB06F602FB0CFC16EB074645EB1745CA
:1014400016EB0C4645EB1C42121951F1000148BF46
:101450007047B619524141EB0101A3F101037047F6
:101460004FEA14454FEA114724EA054621EA074CA2
:1014700005FB07F106FB07F70CFB06F24FF0000631
:1014800005FB0CFC12EB074241EB174112EB0C423F
:1014900051EB1C4148BF7047921841EB0101A3F189
:1014A000010370472DE9F04104F084FC0021084657
:1014B00004F0DCFC03F055F80FA004F01DFD002142
:1014C000012004F0D3FC10A004F016FD002103203D
:1014D00004F0CCFC0FA004F00FFD134E4AF6AA2531
:1014E000124CF71403E000BF03F03BF8356020888E
:1014F000B842F9D1BDE8F0814465766963653A4246
:101500004E3134332000000056657273696F6E3AB5
:10151000312E300050726F64756374696F6E3A4E8D
:101520004D4E4A2E434F0000003000409C000020EA
:101530002DE9F04103F010F9194C1A4A01262369EC
:10154000002571031848934207DA6769974204DD62
:10155000012201F032F8667015E0144A934209DD69
:101560006769974206DA002201F027F82670657055
:10157000BDE8F081934208DD6769974205DD0022EE
:1015800001F01BF865702570F2E79342F0DA6369A9
:101590009342EDDA002201F010F866702670E7E75A
:1015A0000000002000A0EA44000C014000A0EE442E
:1015B00070B5044600688168C943C90717D18168BE
:1015C00021F00101816000F0FDFF05460AE000BF47
:1015D00000F0F8FF401B022804D920688068C0434F
:1015E000C00706D020688068C043C007F0D0002044
:1015F00070BDA06A40F01000A062E06A40F00100F7
:10160000E062012070BD0000F8B500260446009697
:1016100000688168C943C9072DD0816841F0010184
:101620008160164816490068B0FBF1F000E0401EEA
:1016300000900028FBD100F0C5FF054616E000BF72
:1016400000F0C0FF401B022810D920688068C0430A
:10165000C0070BD0A06A40F01000A062E06A40F022
:101660000100E06284F824600120F8BD20688068F1
:10167000C043C007E4D10020F8BD0000B000002046
:1016800040420F002DE9F05F354C4FF00009A4F8FF
:10169000009004F08FFB0021084604F0E7FB31A026
:1016A00004F02AFC02F05DFF4FF4FA7000F0BEFD7A
:1016B000314D4FF4804ADFF8C480264607E000BF72
:1016C0002F494AF6AA2008603088202805D03288A1
:1016D000B2F5006FF4D1BDE8F09F012068600021F1
:1016E000022004F0C3FB27A004F006FC01225746A9
:1016F0005146404600F061FFBA4600244FF47A7B21
:101700004FF4006701225146404600F056FF58460C
:1017100000F08CFD3088B8420CD100225146404682
:1017200000F04BFFC5F80490A6F80090642000F08C
:101730007DFD02E0641C032CE4DB002251464046A0
:1017400000F03BFF4C46C5F8049004F033FB002149
:10175000084604F08BFB03A004F0CEFB3480AFE717
:101760009C000020235052455353204F4B20544F90
:1017700020414C41524D3A0070000020000C0140C5
:1017800000300040414C41524D494E472E2E2E2EE6
:101790002E0000002DE9F0411C4C0025258004F0AE
:1017A00009FB0021084604F061FB194E307801283E
:1017B00007D10021284604F059FB16A004F09CFB39
:1017C0000125184F3878012806D10021284604F059
:1017D0004DFB15A004F090FB38783178084306D112
:1017E0000021084604F042FB13A004F085FB164ECE
:1017F0004AF6AA25F7142088B84204D0356002F0D2
:10180000B0FE3560F7E7BDE8F08100009C000020E5
:1018100000000020564F4C54414745204443204689
:1018200041494C0001000020564F4C54414745208F
:101830004143204641494C004E4F204641554C54AF
:101840002E2E2E2E00000000003000402DE9F05F0B
:101850002C4C0027278004F0ADFA0021084604F044
:1018600005FB29A004F048FB02F07BFE4FF4FA7060
:1018700000F0DCFCDFF8A4804FF4006609E000BF54
:10188000DFF89CB04AF6AA2ACBF800A020882028CE
:1018900004D02088B042F3D1BDE8F09F002102209F
:1018A00004F0E4FA1FA004F027FB00254FF47A7936
:1018B00001221021404600F080FE484600F0B6FCB0
:1018C0002088B0420AD100221021404600F075FE67
:1018D0004FF4FA7000F0AAFC278002E06D1C032D83
:1018E000E6DB00221021404600F067FE04F062FAB9
:1018F0000021084604F0BAFA03A004F0FDFA27809C
:10190000C2E700009C000020235052455353204F53
:101910004B20544F20414C41524D3A00000C0140A5
:1019200000300040414C41524D494E472E2E2E2E44
:101930002E00000010B50C4C01220421204600F0BE
:101940003CFE00220821204600F037FE0748002117
:1019500001220180064805230270064883718372C4
:10196000C1710548027010BD000C01409C000020B0
:101970007B0000200000002079000020FEE700002E
:10198000094810B500784FF00D0101284FF0020012
:1019900006D004F06BFA05A0BDE8104004F0ACBA24
:1019A00004F064FA03A0F7E7490000204641494CDF
:1019B000000000004F4B202000000000014800F014
:1019C00025BB0000B002002030B590F84050012443
:1019D000AC40C56B6C60046863604368102B03689F
:1019E00003D099600068C26030BD9A600068C16031
:1019F00030BD7047012000F0C9BC10B54FF4006045
:101A000000F0C4FC4FF4805000F0C0FCBDE8104072
:101A10004FF4004000F0BABC082000F0B7BC102022
:101A200000F0B4BC10B5202000F0B0FC402000F065
:101A3000ADFC802000F0AAFCBDE810404FF480709F
:101A400000F0A4BC72B6FEE7064A0021D161064947
:101A50000A6942F002020A614861086940F04000E8
:101A6000086170470805002000200240044B002256
:101A7000DA61044A136943F001031361018070477E
:101A80000805002000200240F8B50024009490F8DA
:101A900024202546012A12D0012280F824204A68F9
:101AA0001F23072A0DD20668776B521E02EB8202B3
:101AB00093409F430B6893401F43776319E00220D4
:101AC000F8BD06680D2A0AD2376BD21F02EB8202DC
:101AD00093409F430B6893401F43376309E0F76AC5
:101AE0000D3A02EB820293409F430B6893401F43E1
:101AF000F7620A68072306680A2A0AD3F7680A3ACF
:101B000002EB420293409F438B6893401F43F76070
:101B100008E0376902EB420293409F438B68934091
:101B20001F4337610A68102A01D0112A20D1124BB5
:101B300002689A4217D193681B0219D4936843F440
:101B4000000393600968102912D10C490C4A0968F6
:101B5000B1FBF2F101EB8101490000E0491E009167
:101B60000029FBD104E0816A41F020018162012457
:101B700080F824502046F8BD00240140B000002029
:101B800040420F000068C06C704700002DE9F04132
:101B90004FF0000704003D467ED0A06A002628B919
:101BA000E66284F82460204600F07EF82046FFF7C5
:101BB000FFFCA16AC90600D420B1A06A40F0100061
:101BC000A06269E0A16A21F4885141F00201A1629A
:101BD0006268E169237B0A4347EA43010A43A1683B
:101BE0004FF48077B94209D0012907D05FF0000196
:101BF00094F814C0BCF1010F02D00AE03946F7E7AF
:101C0000F3B1A36A43F02003A362E36A43F0010344
:101C1000E3622368D3F804C02CF4694C4CEA010C4D
:101C2000C3F804C021688B68DFF870C003EA0C03B6
:101C300013438B60A168B9420BD0012909D00CE095
:101C4000DFF85CC0A3690CEB43330B4343F4006142
:101C5000DFE7218A0D05A5F580152168CB6A23F4FD
:101C600070032B43CB62216889680E4B1940914267
:101C700008D1E662A16A21F0020141F00101A162EE
:101C8000BDE8F081A06A20F0020040F01000A062E0
:101C9000E06A40F00100E0620120F1E7FDF7E1FFBA
:101CA00000E0FFFFFE0E1FFF10B586B0002100917F
:101CB0000191029103911A4C03681A4903221A48B0
:101CC000A34211D18B6943F400738B618B6903F4D8
:101CD000007304938B6943F004038B61896901F0FD
:101CE00004010491012113E0104CA34215D18B692A
:101CF00043F480638B618B6903F4806304938B6985
:101D000043F004038B61896901F00401049104210B
:101D1000CDE90012694600F05BFB06B010BD000083
:101D2000002401400010024000080140002801404A
:101D30002DE9F84300270D460446009700F042FCC9
:101D4000804620688168C90508D5A06A40F0200057
:101D5000A06284F824700120BDE8F8834168C905B9
:101D600003D4C06A10F4700F2AD0022000F0A2FE43
:101D70003B490968B1FBF0F62068036939490B4219
:101D80004FEA61014FEAA1121FD1C3684FEA611CFB
:101D900013EA0C0F19D103690B4225D1C068104218
:101DA00022D1142023E0681C0AD02DB100F00AFCD7
:101DB000A0EB0800A84203D920680068800725D559
:101DC000206800688007EED52DE003690B4202D140
:101DD000C168114206D0026923490A4206D1C0688F
:101DE000084203D1542002E0292000E0FC204643B1
:101DF000009816E0681C11D02DB100F0E3FBA0EBB9
:101E00000800A8420AD90098B04207D2A06A40F060
:101E10000400A06284F8247003209DE70098401C11
:101E20000090B042E6D321686FF012000860A06A0B
:101E300040F40070A06220688068C0F34240072828
:101E40000CD1207B50B9A06A20F48070A062A06AF7
:101E5000C00403D4A06A40F00100A06200207BE728
:101E6000B0000020244992244992240070B5044611
:101E700090F8240001280DD0012084F82400204689
:101E8000FFF7C2FB02004FF0000005D084F82400E9
:101E9000104670BD022070BDA16A40F20123994333
:101EA00041F48071A1621F4D23681F49AB4218D1D4
:101EB0000E6816F4702F14D0A66A46F48016A66237
:101EC0000E68760505D5A66A26F4005646F48056B7
:101ED000A662A66AF6040AD5E66A26F00606E66257
:101EE00006E0A66A26F48016A6625E68E9E7E0626C
:101EF00084F824006FF00200186020688368C3F340
:101F00004243072B05D1A84208D1096811F4702F6C
:101F100004D0816841F480118160B9E7816841F49F
:101F2000A001F9E7002801400424014010B590F811
:101F300021100022022905D00421816380F820208D
:101F4000012010BD01680B6823F00E030B600168CF
:101F50000B6823F001030B6090F84030C46B012143
:101F600001FA03F3636080F8211080F82020104606
:101F700010BD000010B590F821100024022903D0F4
:101F80000421816301243DE001680A6822F00E0209
:101F90000A6001680A6822F001020A601A4A0168B0
:101FA000914201D1012121E0174A1432914201D11D
:101FB00010211BE0144A2832914201D1891515E005
:101FC000114A3C32914201D189140FE00E4A50323D
:101FD000914202D14FF4803108E00B4A64329142C1
:101FE00002D14FF4801101E04FF08071064A083AA7
:101FF0005160012180F82110002180F82010416BF0
:1020000001B18847204610BD080002402DE9F05F6D
:10201000C16B0C6801680B68D0F840C0042202FA5A
:102020000CF2494DDFF824A1494E4A4FDFF828B1A0
:10203000DFF828E122422CD05A072AD50A689206F6
:1020400003D40A6822F004020A600168A94201D19F
:10205000042219E0514501D1402215E0B14202D1DC
:102060004FF4806210E0B94202D14FF480420BE09D
:10207000594502D14FF4802206E0714502D14FF458
:10208000800201E04FF080622F4908394A60C16A3E
:102090003BE04FF0020808FA0CF818EA040F4FF082
:1020A00000094FF0010235D05FEA837832D50B6822
:1020B0009B0605D40B6823F00A030B6080F82120EF
:1020C0000168A94201D1022219E0514501D1202223
:1020D00015E0B14202D14FF4007210E0B94202D1D2
:1020E0004FF400520BE0594502D14FF4003206E0A4
:1020F000714502D14FF4001201E04FF00072124915
:1021000008394A6080F82090816A00291AD0BDE819
:10211000F05F0847082505FA0CF5254212D01B0789
:1021200010D50B6823F00E030B6090F84010C36BC2
:1021300002FA01F15960826380F8212080F8209032
:10214000016BE2E7BDE8F09F080002401C0002407E
:102150003000024044000240580002406C0002403F
:1021600030B528B308C8134914221944B1FBF2F161
:102170008900C16310498163022141771A6843F6DF
:10218000F0718A43D0E900142143D0E902452C4381
:102190002143046921434469214384692143114354
:1021A000196000214163012242770177084630BD62
:1021B000012030BDF8FFFDBF0000024070B50446AD
:1021C00090F82000002501280CD0012084F8200080
:1021D00094F821600020012E06D084F8200002250A
:1021E000284670BD022070BD022684F82160A063DD
:1021F0002068066826F0010606602046FFF7E4FB2B
:10220000E06A00282068016802D041F00E0106E073
:1022100021F0040101602068016841F00A010160B9
:102220002068016841F001010160D9E770B50446FA
:1022300000F0C8F90546601C02D004480078044448
:1022400000F0C0F9401BA042FAD370BD800000200E
:102250000348016941F080010161002070470000DE
:1022600000200240064900200A69120607D5054AE7
:102270004A60054A4A600969090600D5012070478D
:102280000020024023016745AB89EFCD2DE9F043E3
:102290000023374F0F2566E001229A400A4060D0A4
:1022A00023F00304E619D6F808809C074FEA147C53
:1022B00005FA0CF909EA0804DFF8B880404502D1B4
:1022C0004FF0000816E0DFF8B080404502D14FF033
:1022D00001080FE0DFF8A480404502D14FF002086A
:1022E00008E0DFF89C80404502D14FF0030801E090
:1022F0004FF0040808FA0CF8A04515D1D6F808C02C
:102300002CEA090CC6F808C01E4E346894433460A9
:10231000341D266896432660241D26689643266051
:10232000241D266896432660FF2A01D8064601E050
:1023300000F104064FEA830401D9A4F12004D6F881
:1023400000C005FA04F82CEA080C4FF0040808FA5B
:1023500004F84CEA080CC6F800C0C46824EA020479
:10236000C46003F1010331FA03F295D1BDE8F083B3
:102370000000014000080140000C01400010014035
:1023800000140140000401407047000070B50D4E7C
:102390000546306828420FD00B4CE06801280BD16D
:1023A0000020E0602580094801F058F9A068401C31
:1023B000A0606068401C606035602846FFF7E4FF5D
:1023C00070BD0000140401408C00002010010020AA
:1023D0002DE9F84FDFF8B891002409F1040A0AF159
:1023E000040B23460F270BF1040EC9E00125A5407D
:1023F0002A40AA427DD1674ED1F804C0ACEB060852
:10240000B44532D014DCBCF1030F3AD009DCBCF186
:10241000000F2AD0BCF1010F1CD0BCF1020F31D14A
:102420001DE0BCF1110F17D0BCF1120F2AD119E039
:10243000B8F5881F19D006DCB8F5803F15D0B8F57F
:10244000801F1FD111E0B8F5001F0ED0B8F5041F92
:1024500018D10AE0CB6815E0CB681B1D12E0CB68F1
:1024600008330FE0CB680C330CE08B682BB1012BE9
:102470004FF0080303D0456104E0042302E0056146
:1024800000E00023FF2A01D8064601E000F104061F
:102490004FEA840501D9A5F12005D6F8008007FA96
:1024A00005FC28EA0C0803FA05F548EA0508C6F811
:1024B00000804D68ED0062D5374DAE6946F00106EB
:1024C000AE61AD6924F0030605F001050095334DBA
:1024D00006EB050CDCF80850A607360F07FA06F8DD
:1024E00025EA0805DFF8B880404503D14FF0000821
:1024F00017E044E0DFF8AC80404502D14FF001081E
:102500000FE0DFF8A480404502D14FF0020808E058
:10251000DFF89880404502D14FF0030801E04FF00A
:10252000040808FA06F848EA0508CCF808804D685F
:10253000D9F80060ED034D4601D5164300E09643FF
:102540002E604D68DAF80060AD03554601D516439C
:1025500000E096432E604D68DBF80060ED025D46BA
:1025600001D5164300E096432E604D68DEF800600A
:10257000AD02754601D5164300E096432E60641CFB
:102580000D682A46E5407FF431AFBDE8F88F0000C2
:102590000004014000001110001002400000014042
:1025A00000080140000C01400010014000140140EF
:1025B0008068084000D0012070470AB1016170476F
:1025C0000904FBE701488068704700008000002094
:1025D00010B5040013D0242084F83D002068016861
:1025E00021F001010160204600F07CF90020206408
:1025F00084F83D0044F8300FA073207310BD012013
:1026000010BD000070B5040025D094F83D000025F1
:1026100020B984F83C50204600F080F9242084F84A
:102620003D002068016821F0010101602068016817
:1026300041F4004101602068016821F4004101601B
:1026400000F096FB4D4A6168914201D84C4900E088
:102650004C49884201D2012070BD4B492368B0FB30
:10266000F1F15E6826F03F060E435E6063689342B8
:1026700006D94FF4967359434FF47A73B1FBF3F1D3
:102680002368491C1E6A26F03F06314319626168BF
:10269000914210D84900401EB0FBF1F2521CC2F327
:1026A0000B02042A01D2042022E0B0FBF1F0401C0E
:1026B000C0F30B001CE0A268F2B301EBC10303EB13
:1026C0000116431EB3FBF6F35B1C43F480431B056A
:1026D00049D092B301EBC10202EB0111401EB0FBE5
:1026E000F1F0401CC0F30B0040F4804040F4004087
:1026F0002168CA694CF6FF739A431043C861D4E954
:10270000071001432068026822F0C00211430160F3
:10271000D4E9030101432068826848F2FF339A43F9
:1027200011438160D4E9050108432168CA6822F099
:10273000FF021043C86001E00EE016E02068016867
:1027400041F0010101602564202084F83D002563EB
:1027500084F83E50002070BD01EB4106431EB3FBE0
:10276000F6F35B1CB3E70120C2E701EB4101401E19
:10277000B0FBF1F0401CC0F30B00B7E7A0860100EE
:1027800080841E0000093D0040420F002DE9FF4FEC
:1027900081B0994692460446DDF838B0FFF712FF43
:1027A0004D4D07460026A868401CA0F57D41A86055
:1027B000E83900D1AE6094F83D0020287ED119237D
:1027C000012246492046009701F0BAFD002875D144
:1027D00094F83C0001287CD04FF0010884F83C803C
:1027E00020680168C90703D1016841F00101016057
:1027F0002068016821F400610160212084F83D0017
:10280000102084F83E002664C4F824A0A4F82A907E
:10281000608D20853248E0623B465A462046029948
:1028200001F000FD90B920684169806900903EE0A8
:102830003A465946204601F051FE58B1206C042812
:1028400004D12068016841F400710160012005B0E5
:10285000BDE8F08F2868B0F57A7F02DBC5E9006833
:1028600028E0606A216800780861606A401C606244
:10287000618D491E6185218D491E8AB2228521689C
:102880004B69DB435B070BD452B100780861606A87
:10289000401C6062608D401E6085208D401E20853A
:1028A0003A465946204601F00BFD0028C6D1208D3E
:1028B0000028BDD154F83D0B016800E009E041F467
:1028C00000710160202004F81E09E6776677002079
:1028D000BDE70220BBE70000A000002002001000BE
:1028E0000000FFFF10B50068094988420FD1094870
:1028F000C16921F40011C161074C40212046FFF756
:10290000C5FC2046BDE810408021FFF7BFBC10BDCC
:102910000054004000100240000C014010B586B089
:102920000021009101910291039100680F498842B2
:102930001AD10F4CA06940F00800A061A069694657
:1029400000F008000490C0200090122001900320A5
:1029500003900848FFF73CFDE06940F40010E06197
:10296000E06900F40010049006B010BD005400406F
:1029700000100240000C01400248816802781144B6
:102980008160704780000020074810B5016841F061
:1029900010010160032000F075F80F2000F006F828
:1029A00000F024F8002010BD0020024070B50D4D4D
:1029B00004464FF47A712878B1FBF0F00A490968AF
:1029C000B1FBF0F000F08DFD48B9102C07D20022C9
:1029D0002146501E00F036F800206C6070BD0120CA
:1029E00070BD000080000020B00000200C4808B539
:1029F000816941F001018161816901F0010100916A
:102A0000C16941F08051C161C06900F080500090FF
:102A10000448416821F0E06141F00071416008BD67
:102A20000010024000000140002809DB00F01F02F6
:102A3000012191404009800000F1E020C0F8001120
:102A400070470000F0B40E4B1B680C46C3F3022322
:102A5000C3F10705042D00D90425191D072901D24A
:102A6000002300E0DB1E012606FA05F1491E214085
:102A700099409E40761E16403143F0BC02F05CBD8A
:102A80000CED00E0064900F0070208684FF6FF036E
:102A9000184040EA0220034A1043086070470000D3
:102AA0000CED00E00000FA050149012008627047C2
:102AB00000000E4210B501460020234C012922D00F
:102AC000022939D010291DD161682268D20119D597
:102AD0001E48C1F38342C903805C0AD561681B4A62
:102AE000C1F34041921E515C194AB2FBF1F14843D7
:102AF00001E0184948436168490203D440000321BA
:102B0000B0FBF1F010BD226AC2F30121012903D10B
:102B1000920701D5C80310BD022905D1626A920748
:102B200002D549F6404010BD0329FCD12168890334
:102B3000F9D54FF2244010BD00F02AF96168C1F3C5
:102B40008131491C4900DBE700100240587500083C
:102B500000127A0000093D002DE9F843054600788F
:102B6000354CC00754D0E0690026C00008D4E069A5
:102B700040F08050E061E069012600F08050009054
:102B80002E480168C90512D40168804641F480715D
:102B90000160FFF717FD074605E000BFFFF712FDD4
:102BA000C01B642823D8D8F80000C005F6D5206AD9
:102BB00010F4407021D0A98801F4407181421CD0EA
:102BC000206A1F49012220F440700A6000220A6036
:102BD0002062C00711D0FFF7F5FC074641F28838A4
:102BE00008E000BFFFF7EEFCC11B414502D90320FE
:102BF000BDE8F883206A8007F4D5206A696820F46C
:102C00004070084320621EB1E06920F08050E0610E
:102C10002878800705D56068A96820F440400843FB
:102C200060602878C00605D56068E96820F48000F7
:102C3000084360600020DBE70010024000700040A5
:102C4000400442422DE9F0470F46050061D0434E53
:102C5000306800F00700B84209D2306820F0070061
:102C600038433060306800F00700B84251D128681E
:102C70003B4C810712D5400703D5606840F4E06003
:102C800060602878000703D5606840F46050606099
:102C90006068A96820F0F000084360602878C007E9
:102CA00028D06868012810D02168022810D0890730
:102CB00000292EDA616821F0030101436160FFF70A
:102CC00081FC804641F288390DE021688903EFE7F5
:102CD0008901EDE7FFF776FCA0EB0801494502D931
:102CE0000320BDE8F0876068696800F00C00B0EB75
:102CF000810FEFD1306800F00700B8420BD930687F
:102D000020F0070038433060306800F00700B84218
:102D100001D00120E5E72878400705D56068E9681B
:102D200020F4E060084360602878000706D56068FA
:102D3000296920F4605040EAC100606000F038F872
:102D40006168084AC1F30311515CC8400649086034
:102D500006480068FFF72AFE0020C2E70020024074
:102D60000010024074750008B000002084000020AC
:102D70000448054900684968044AC1F30221515CCE
:102D8000C8407047B0000020001002408475000861
:102D90000448054900684968044AC1F3C221515CEE
:102DA000C8407047B0000020001002408475000841
:102DB0000E4A51680E4801F00C03042B11D0082B69
:102DC0000FD10C48C1F38343C903C05C0AD55168D5
:102DD000084AC1F34041921E515C054A5043B0FB82
:102DE000F1F070470449484370470000001002406A
:102DF00000127A004675000800093D002DE9F84FE1
:102E0000040070D02078C04DC00749D06868C0F376
:102E10008100012807D06868C0F38100022809D129
:102E20006868C00306D52868800339D56068002823
:102E3000E7D035E06068B0F5803F0BD010B1B0F559
:102E4000A02F11D0286820F480302860286820F452
:102E5000802002E0286840F480302860606890B1EB
:102E6000FFF7B0FB06460AE0286840F4802028609F
:102E7000F0E700BFFFF7A6FB801B642873D8286823
:102E80008003F7D50CE0FFF79DFB064605E000BF89
:102E9000FFF798FB801B6428F0D828688003F7D4DC
:102EA00020789A4E80074FF001094FF0000839D57D
:102EB000686810F00C0F07D06868C0F38100022822
:102EC00009D16868C00306D42868800714D5206932
:102ED000012808D110E02069B0B1C6F80090FFF7D2
:102EE00071FB074605E00AE1FFF76CFBC01B0228F7
:102EF000C4D828688007F7D52868616920F0F800F1
:102F000040EAC10028600DE0C6F80080FFF75AFBD8
:102F1000074604E0FFF756FBC01B022823D82868A9
:102F20008007F7D4207800072CD57948A169D9B15A
:102F3000C0F80090FFF746FB074604E0FFF742FBAE
:102F4000C01B02280FD8686A8007F7D571484FF474
:102F5000FA510068B0FBF1F0009000BF0098411EEC
:102F60000091FAD20EE080E0C0F80080FFF72AFB63
:102F7000074604E0FFF726FBC01B022875D8686AE5
:102F80008007F7D42078400760D5E8690027C000A3
:102F900008D4E86940F08050E861E869012700F052
:102FA000805000905C480168C90513D401688346CD
:102FB00041F480710160FFF705FB824606E000BF27
:102FC000FFF700FBA0EB0A0064284ED8DBF80000F6
:102FD000C005F5D5E06801280AD008B1052813D04E
:102FE000286A20F001002862286A20F0040002E02C
:102FF000286A40F001002862E06841F2883B98B1FD
:10300000FFF7E0FA82460BE0286A40F004002862ED
:10301000EEE700BFFFF7D6FAA0EB0A0159455AD8F0
:10302000286A8007F6D50CE0FFF7CCFA824605E067
:10303000FFF7C8FAA0EB0A0159454CD8286A800767
:10304000F6D41FB1E86920F08050E861E06988B3E8
:103050006968C1F38101022944D00228C6F8608062
:1030600004D0FFF7AFFA044638E034E0FFF7AAFADD
:10307000074604E0FFF7A6FAC01B02282BD82868F1
:103080008001F7D4206AB0F5803F05D16868A16857
:1030900020F4003008436860D4E9080108436968F7
:1030A00021F4741108436860C6F86090FFF78AFA4B
:1030B000044606E025E000BFFFF784FA001B022863
:1030C00009D828688001F7D51BE000BFFFF77AFA1E
:1030D000001B022802D90320BDE8F88F2868800170
:1030E000F4D40EE00128F7D06868226A00F4803139
:1030F000914204D1616A00F47010884201D001202D
:10310000EAE70020E8E70000001002400000424229
:1031100080044242B0000020007000402DE9F041E0
:103120000D4601F052FE2249B0FBF1F3214801683F
:10313000994236D04FF4B77740F2B274BE1E0360A6
:1031400007E0204602F00FFA01280DD0A3F26D131C
:10315000641CB342F5D8A4F5FA6026460024E87052
:103160001C2B14D3144F0BE0BB42F4D3A3F5B7735D
:10317000EEE7012C04D1304602F0F5F9012813D016
:10318000385D984203D81B1A641C1C2BF1D2641CB6
:10319000E1B25B1C6970DAB2AA70E87801F025FE32
:1031A00028700020BDE8F0811D2BF0D31D3BEBE71C
:1031B00080510100AC0000206875000870B50C4615
:1031C00001684968490701D5012070BD01F0FDFD86
:1031D0004FF46161B0FBF1F301FB13053C23B5FB38
:1031E000F3F56570B0FBF1F2B0FBF1F501FB1500F2
:1031F000B0FBF3F103FB1100A0701820B2FBF0F15B
:1032000000FB11212170182A07D3B2FBF0F1B2FBA9
:10321000F0F100FB1120207000E02270002070BD52
:1032200070B5040003D0607C002610B105E00120D9
:1032300070BD2674204600F043F8022060742046DA
:1032400000F032F9042578BB204601F089FD58BB17
:103250002068416821F007014160A06820B117484B
:10326000016821F0010101601448001F0168A26893
:1032700021F46071114301606068411C04D1012098
:10328000FFF718FC80B1401E21688A6822F00F0207
:1032900042EA10428A602168CA6860F30F02CA607D
:1032A000204601F077FD08B16574C0E7E6730120A0
:1032B0006073A0736074002070BD0000306C00402B
:1032C00008B50068084988420DD1FFF7EDFB0748B3
:1032D000C16941F00061C161C069054900F0006049
:1032E00000900120086008BD002800400010024046
:1032F0003C0442422DE9FE4F3EA20E46054607CA57
:103300008DE807000024284601F05FFD4FF461625C
:10331000B0FBF2F102FB11073C21B7FBF1F707F01C
:10332000FF0AB0FBF2F3B0FBF2F702FB1700B0FBB1
:10333000F1F201FB12091820B3FBF0F100FB113888
:10334000F37840F6330003F5FA6340F2B277834234
:1033500001D9034603E0BB4209D23B4609E03846A7
:1033600002F001F901280BD025487F1C04449F423C
:10337000F5D37778184602F0F6F8012802D005E078
:103380002048F2E7022F01D91F4804440020694673
:103390007F1E06E00A5C40F2A3235A4304EBC214EA
:1033A000401CB842F6D3B07840F2A321484304EB66
:1033B000C0111548C8EB481240420844C2EB08212E
:1033C00000EB0110CAEB0A1100EB810000EB0901D0
:1033D000287C01280BD001242C7402206874284614
:1033E00001F02EFD6C7400202874BDE8FE8F0220D1
:1033F000FBE700001F1C1F1E1F1E1F1F1E1F1E1F7E
:103400008033E1010085E201805101002DE9F041A6
:1034100017460C46054601F0D8FC4FF46161B0FB3D
:10342000F1F0182805D31821B0FBF1F61D484643EA
:1034300000E00026287C012827D04FF0010885F8FD
:1034400010800220687420780FB301F080FC4FF4E4
:10345000616100FB01F7607801F079FCC0EB0010BE
:1034600007EB8007A07801F072FC384481192846E8
:1034700001F0E6FC2868416821F00501416085F80B
:10348000118000202874BDE8F0810220FBE74FF492
:10349000616148436178C1EB011100EB8100A178C3
:1034A0000844E3E78051010070B504000AD02068A9
:1034B000416821F008014160FFF784F805464FF4A8
:1034C0007A7608E0012070BDFFF77CF8401BB0421F
:1034D00001D9032070BD206840680007F4D50020A2
:1034E00070BD10B5401EB0F1807F01D3012010BD2A
:1034F0004FF0E02460610F21601702F01DF80020FA
:10350000A06107202061002010BD704770470000B7
:1035100070B590F83C20012A26D0012480F83C4068
:10352000022280F83D2003685A689D6822F07006E8
:103530000A6832435A600D4B02689A4208D0B2F1D1
:10354000804F05D00A4B9A4202D00A4B9A4204D1CE
:10355000496825F080031943916080F83D400021BF
:1035600080F83C10084670BD022070BD002C014060
:10357000000400400008004010B5040003D094F897
:103580003D0010B107E0012010BD002084F83C0090
:10359000204600F01FF8022084F83D00211D20681D
:1035A00001F0BCFC012084F8460084F83E0084F859
:1035B0003F0084F8400084F8410084F8420084F819
:1035C000430084F8440084F8450084F83D0000205E
:1035D00010BD000008B501681D48B1F1804F11D041
:1035E0001C4A91421DD1C16941F00201C161C0690B
:1035F000002200F00200009011461D20FFF722FA81
:103600001D201FE0C16941F00101C161C0690022B4
:1036100000F00100009011461C20FFF713FA1C2057
:1036200010E00D4A914211D1C16941F00401C1611C
:10363000C069002200F00400009011461E20FFF730
:1036400001FA1E20BDE80840FFF7EEB908BD0000F2
:1036500000100240000400400008004090F83D10B7
:10366000012901D001207047022180F83D10016836
:10367000CA6842F00102CA6000680B49884208D05B
:10368000B0F1804F05D00949884202D008498842EC
:1036900004D1816801F00701062903D0016841F0D7
:1036A0000101016000207047002C0140000400402F
:1036B0000008004001680A6A41F211131A4207D15A
:1036C0000A6A9B101A4203D10A6822F001020A60BA
:1036D000012180F83D100020704770B5044690F835
:1036E0003C000025012817D0012684F83C60022008
:1036F00084F83D002068826822F0770222F47F423D
:1037000082600868502838D00DDC20284FD005DCB6
:1037100090B3102811D14AE0022070BD302846D065
:1037200040280AD13BE060282FD070280DD0B0F59A
:10373000805F03D0B0F5005F12D0012584F83D60B2
:10374000002084F83C00284670BDCB68D1E90121F7
:10375000206801F019FC2068816841F0770109E0D8
:10376000CB68D1E90121206801F00EFC2068816856
:1037700041F480418160E1E719E0CA684968206846
:1037800001F014FC5021206806E0CA6849682068EE
:1037900001F01DFC6021206801F000FCCEE7CA6842
:1037A0004968206801F002FC40212068F4E72268A3
:1037B00001461046F0E7704770B50446006801699D
:1037C0004FF00005C943890715D4C168C94389076B
:1037D00011D4E91E016101202077206880698007EB
:1037E000204602D0FFF7E7FF04E000F098F82046FB
:1037F00000F096F8257720680169C943490717D476
:10380000C168C943490713D46FF004010161022064
:1038100020772068806910F4407F204602D0FFF7AF
:10382000CAFF04E000F07BF8204600F079F8257725
:1038300020680169C943090716D4C168C94309074B
:1038400012D46FF008010161042020772068C0695C
:103850008007204602D0FFF7AEFF04E000F05FF8DB
:10386000204600F05DF8257720680169C943C90644
:1038700017D4C168C943C90613D46FF010010161A0
:10388000082020772068C06910F4407F204602D0CD
:10389000FFF791FF04E000F042F8204600F040F806
:1038A000257720680169C943C90708D1C168C943A0
:1038B000C90704D1891E0161204600F033F8206851
:1038C0000169C943090609D4C168C943090605D479
:1038D0006FF0800101612046FFF717FE2068016943
:1038E000C943490609D4C168C943490605D46FF0E4
:1038F00040010161204600F0AFF920680169C94329
:1039000089060BD4C168C943890607D46FF020012A
:1039100001612046BDE87040FFF7F8BD70BD7047FB
:10392000704700002DE9F84F0746B148DFF8C4B2F0
:103930000026B14CB14D4FF0640A4FF001088742A8
:103940004ED1FDF7F5FD9BF80000012802D120784B
:10395000012803D0A078012827D037E0E178A848D3
:1039600011B1007898B11EE084F80380007858B94E
:103970002878012320F001002870A04A4121A148A5
:10398000CDF800A0FEF702FF84F802801EE0287840
:10399000012340F001002870984A41219948CDF850
:1039A00000A0FEF7F3FEE67010E0207801280DD1AC
:1039B0002878012340F008002870904A412191485E
:1039C000CDF800A0FEF7E2FEE670A670207864282D
:1039D00000D126702078401C20706078401C6070F8
:1039E0008948DFF82892874229D1FFF763FE88498A
:1039F0008848C1F80080667101888748FEF7D8FDC5
:103A0000E8B984480088A9F80000E080012816D1B0
:103A1000FDF790FF81490022824881F800808049AB
:103A200081F800801021FEF7C8FD00224FF480418C
:103A30007C48FEF7C2FD287840F0200028707A48C4
:103A4000874273D179480078012840D1E068401C52
:103A5000E060B9F80020B2F5807F04D12269521CE1
:103A60002261A9F80060216939B3002210216D4854
:103A70002661FEF7A2FD00224FF480416948FEF75F
:103A80009CFD6A4801235D4A06702878412140F078
:103A9000200028705B48CDF800A0FEF777FE28785C
:103AA000012340F010002870544A41215548CDF8B8
:103AB00000A0FEF76BFEE66009E040B15C4A5D499C
:103AC00082F800800978012901D103F021F9012150
:103AD0005448FEF76DFD012819D1DFF844A19AF88A
:103AE0000000012813D102F031FC4C4800221021C3
:103AF00080F800808AF80060DFF828A15046FEF7C1
:103B00005CFD00224FF480415046FEF756FD4A48C6
:103B100001781E2902D0212909D01EE09BF800203F
:103B2000012A1AD18BF80060268116E05EE09BF82E
:103B30000020012A15D0414AA4F8088082F80080AC
:103B40003F4A82F800803F4A82F80080297841F09D
:103B500007012970A9F8006006702179012904D0B5
:103B600015E08BF800602681F4E762794FF400617C
:103B70003C2A02D03D2A03D006E0A9F8001003E059
:103B80002671A9F8001066716179491C617101788C
:103B9000491C01702C4801682C48814203DA2878BE
:103BA00020F0400003E003DD287840F0400028705A
:103BB000274801682748814203DA287820F08000EE
:103BC00003E003DD287840F08000287039686FF04A
:103BD0000100086117480078012807D10A200090E9
:103BE0000123064A41210748FEF7D0FDBDE8F88FC2
:103BF00058010020490000202C000020480000202F
:103C00007300002048020020100100209C000020CA
:103C1000980000208C0000200008014009000020CE
:103C200008000020000C0140A001002047000020F7
:103C300074000020700000202800002040000020B8
:103C400041000020420000201000002000A0DF44BE
:103C50001400002000A0CF44704738B5044690F807
:103C60004200202801D0022038BD61B15AB10120A4
:103C7000206300206063204601F02CFB0028F3D174
:103C8000216B012901D0012038BD21680A684968EB
:103C9000009121680C3151E8002F42F0100241E8F8
:103CA0000023002BF5D138BD2DE9F04100686449AF
:103CB00088427DD1634CDFF89081012565724046D2
:103CC00004F1080698F80020417830780027542A3B
:103CD00002D04F2A0FD019E0212917D120F002007D
:103CE00030702078012811D101F0DEFE2770A57117
:103CF000E570E5710AE0212908D140F0020030703A
:103D0000257060792179084300D1A77198F80200E5
:103D1000542802D04F2813D020E098F8030022281E
:103D20001CD1307820F004003070257160780128B3
:103D300014D1022001F0B8FE6770A571E5710DE0A5
:103D400098F80300222809D1307840F00400307040
:103D50006570E0786179084300D1A77198F8040094
:103D6000542802D04F2813D020E098F805002328CB
:103D70001CD1307820F0080030706571A0780128DF
:103D800014D1032001F090FEA571E571A7700DE03C
:103D900098F80500232809D12079E178084300D15B
:103DA000A771307840F008003070A570444600E0FC
:103DB00034E098F80000632830D1607861282DD174
:103DC000A0786C282AD1E0786C2827D120796F2838
:103DD00024D160791D4E4FF480456E2813D1012205
:103DE00029463046FEF7E9FB2078632816D1607833
:103DF000612813D1A0786C2810D1E0786C280DD1FF
:103E000020796F280AD16079662807D110480068A8
:103E100020B9002229463046FEF7CFFB0A210A4886
:103E2000FCF750FB0A2208490A48FFF716FF06482C
:103E300044380068016821F004010160BDE8F081A8
:103E40000038014040000020F4020020000C014036
:103E500074000020B400002070470000F8B501682D
:103E600004460868CA684B6910F00F0F4FF0000550
:103E70005AD003F0010602F49077374366D0C107A9
:103E800005D0D10503D5616C41F0010161644107A2
:103E900005D5D90703D0616C41F002016164810747
:103EA00005D5D90703D0616C41F0040161640107B5
:103EB00007D502F02001314303D0616C41F00801C5
:103EC0006164616C00293BD0800604D5900602D560
:103ED000204601F042F920684069616CC0F380100F
:103EE000090700D468B3204601F002F90A22764996
:103EF0007648FFF7B2FE76480068016821F00401B9
:103F0000016020684069400617D5E06BA8B171498F
:103F10004163E06BFEF72EF8002811D0E06B416B97
:103F200001B0BDE8F040084783060FD593060DD5D4
:103F30002046BDE8F84001F010B92046FFF78CFF9D
:103F4000F8BD2046FFF788FF6564F8BD266B202387
:103F5000012E7CD1C6067AD5D60678D50868486881
:103F6000009048694FF00206400640D5E16B0868B2
:103F700040680004000CE8D0A28D8242E5D9E085BB
:103F8000886920282DD020680C3050E8001F21F4CB
:103F9000807140E80012002AF5D12068143050E802
:103FA000001F21F0010140E80012002AF5D120682D
:103FB000143050E8001F21F0400140E80012002AB0
:103FC000F5D184F84230256320680C3050E8001F9A
:103FD00021F0100140E80012002AF5D1E06BFDF756
:103FE000A5FF6663A08DE18D401A81B22AE0A08D05
:103FF000E18D401A81B2E08D0028A6D00029A4D01E
:1040000020680C3050E8002F22F4907240E800271E
:10401000002FF5D12068143050E8002F22F0010263
:1040200040E80027002FF5D184F84230256320684E
:104030000C3050E8002F22F0100240E80023002B43
:10404000F5D166632046FFF72FFEF8BDFFE70506B2
:104050002BD5150629D594F841002128F5D1A06863
:10406000B0F5805F01D12069B0B1206A411C2162A6
:10407000216800784860E08C401E0004000CE08459
:10408000E3D12068C16821F08001C1602068C16867
:1040900041F04001C160D8E7206A0088C0F3080001
:1040A0004860206A801C2062E5E74006CDD55006B6
:1040B000CBD5CA68204622F04002CA6084F841305D
:1040C00000F096F8C1E70000F4020020B4000020E0
:1040D000B0020020F34F000870B5040004D094F83B
:1040E0004100002510B106E0012070BD84F8405069
:1040F000204600F023F8242084F841002068C1689D
:1041000021F40051C160204601F088F8206801695F
:1041100021F4904101612068416921F02A01416147
:104120002068C16841F40051C1606564202084F8B2
:10413000410084F842006563002070BD70B586B010
:1041400000250646009501950295039500682249D1
:1041500088423ED12149886940F48040886188695D
:1041600000F480400490886940F004008861886908
:104170001B4C00F0040004904815009002200190B0
:104180000320039069462046FEF722F92015CDE969
:104190000005694620460295FEF71AF9124C1148AF
:1041A000C4E900058020C4E9025025616561A5616C
:1041B0002046E561FDF7D4FF08B1FDF743FCF46349
:1041C0000022114625206662FEF73CFC2520FEF702
:1041D0002BFC06B070BD000000380140001002400A
:1041E0000008014058000240B002002070477047AC
:1041F0007047FEE701684A69D24352050FD46FF455
:1042000080624A61002140F8301F2022427381738E
:10421000026942F00402026101730120704700202C
:1042200070470000F8B50446C06A1E460D461746A2
:10423000082807D0012805D010F5803F02D0206B58
:10424000122804D12068016841F48071016013468E
:1042500000224FF001112046009600F071F840B1A5
:1042600020680068C00502D54FF400702064032068
:10427000F8BD2069B0F5804F0ED00620216800EA15
:10428000D51040F0F000086133463A460B4920460D
:1042900000F0B4F878B902E005F0FE0000E0E8B202
:1042A00021680861054933463A46891F204600F0D7
:1042B000A5F80028DCD00120F8BD000008000100AE
:1042C0002DE9F04791468846044600261B4D4FF4E1
:1042D0007A772BE02868401C2860B84203DB012075
:1042E000C5E9006027E02046FFF784FF10B10120F8
:1042F000BDE8F087B8F1FF3F18D0FEF763F9A0EBF7
:104300000901414502D8B8F1000F0FD1206840697A
:10431000C04340070AD544F8306F20206073A6736D
:10432000206940F0200020612673E0E720684069A2
:10433000C0434007CED40020DAE70000A0000020F0
:104340002DE9F05F9A4617460D4604464FF00009E6
:10435000DFF8A480C1F30746DDF828B037E000BFDE
:10436000D8F80000401CC8F80000B0F57A7F03DBE5
:104370000121C8E9009137E0BAF1FF3F27D0FEF7ED
:1043800021F9A0EB0B01514502D8BAF1000F1ED163
:104390002068012E17D0806925EA00000004000C77
:1043A00013D00020B84212D144F8309F202161730D
:1043B00084F80E90216941F02001216184F80C906D
:1043C0000120BDE8F09F4069E6E70120EAE72068A8
:1043D000012E0DD0D0F8180025EA00000004000CD2
:1043E00008D00020B842BBD00020C8F80090E8E711
:1043F0004069F1E70120F5E7A00000202DE9F05F1A
:104400009A4616460D4604464FF000084FF0200B22
:10441000DFF8C490C1F3074730E000BFD9F80000CF
:10442000401CC9F80000B0F57A7F03DB0121C9E91F
:1044300000814EE020684069C043400515D42068E3
:10444000016841F40071016021686FF48060486187
:10445000C4F8308084F83DB084F83E80216C41F08F
:104460000401216484F83C8020E0701C06D0FEF733
:10447000A9F8A0EB0A00B04203D816B1012F1ED054
:1044800020E02068012F14D0806925EA0000000494
:10449000000C17D044F8308F84F80DB084F80E80EB
:1044A000216941F02001216184F80C800120BDE8E0
:1044B000F09F406925EA00000004000CEAD1206862
:1044C000406901E02068806925EA00000004000CD2
:1044D000A4D10020EBE70000A00000202DE9F04768
:1044E00091468846044600261B4D4FF47A772BE010
:1044F0002868401C2860B84203DB0120C5E9006041
:1045000027E02046FFF776FE10B10120BDE8F087D6
:10451000B8F1FF3F18D0FEF755F8A0EB090141456F
:1045200002D8B8F1000F0FD120684069C0430006DF
:104530000AD544F8306F20206073A673206940F0DC
:10454000200020612673E0E720684069C043000630
:10455000CED40020DAE70000A00000200F2001F0F8
:1045600060BC0C2001F05DBC2DE9F84F01F022FC8D
:104570000021084601F07AFC6FA001F0BDFCFFF7B6
:10458000F0FF704CFF20DFF8C0B160700020207099
:10459000024604215D465846FEF70FF80022082126
:1045A0002846FEF70AF864250123621C412167486A
:1045B0000095FEF7EBF866484FF47A76017821F023
:1045C000080101703046FDF731FE4FF0010AB14697
:1045D000DFF8808184F803A000274AF6AA266078D5
:1045E000584A400060700123521C412157480095F1
:1045F000FEF7CCF87806010E012001F037FCFF2011
:1046000001F025FC4846FDF711FEC8F800607F1C4C
:10461000042FE4DBB02060704A4A0123521C412180
:104620004A480095FEF7B2F80821022001F01EFC6E
:10463000FF2001F00CFC4FF47A70FDF7F7FD3020FD
:104640006070404A0123521C412140480095FEF70A
:104650009DF80A21022001F009FCFF2001F0F7FB80
:104660004FF47A70FDF7E2FD3046B1464646C8F891
:10467000000020206070334A0123521C412133483E
:104680000095FEF783F80C21012001F0EFFBFF20DD
:1046900001F0DDFB4FF47A70FDF7C8FD0027294AD1
:1046A00067700123521C412128480095FEF76EF8DF
:1046B0000E21012001F0DAFBFF2001F0C8FB4FF4CE
:1046C0007A70FDF7B3FD012208215D465846FDF7DB
:1046D00074FF0621032001F0C9FBFF2001F0B7FBA6
:1046E0004FF47A70FDF7A2FDC6F800900821032070
:1046F00001F0BCFBFF2001F0AAFB012204212846A7
:10470000FDF75BFF4FF47A70FDF790FD0A2103205F
:1047100001F0ACFBFF2001F09AFB012211022846B8
:10472000FDF74BFF4FF47A70FDF780FDE77084F8DA
:1047300000A0BDE8F88F0000234C454420544553A9
:10474000543A000070000020000C01404802002094
:10475000480000200030004010B50E48FDF786FBF1
:1047600001210C48FDF7E4FA0A48FDF70BFA02F0C4
:1047700007FE094C60610948FDF778FB01210748F5
:10478000FDF7D6FA0548FDF7FDF902F0F9FD2061C5
:1047900010BD00001802002000000020E8010020E9
:1047A0002DE9F05F01F006FB0021084601F05EFBF9
:1047B000694E002569A0358001F09EFB0021012093
:1047C00001F054FB67A001F097FB6A4C0D21E078E3
:1047D00001F04CFB68A001F08FFBFFF7BFFE00214A
:1047E000E07801F043FBE07820704FF0010ADFF839
:1047F0008CB14FF4006975E0DFF884814AF6AA278E
:10480000C8F800703088202825D0802803D0B0F563
:10481000004F67D10AE0207808B1401E0AE05046F8
:1048200084F800A0002110E03580E9E72078012815
:1048300008D0401CC0B22070002101F017FBFFF728
:104840008DFEF1E725700021284601F00FFBFFF7F0
:1048500085FE3580E8E72078F0B30128D0D15046B6
:1048600084F801A00D2101F001FB43A001F044FBFD
:104870000D21002001F0FAFA42A001F03DFB0021D9
:10488000207801F0F3FAFFF769FE012204215F4668
:104890005846FDF792FE002208213846FDF78DFEAE
:1048A00039493580A57005200870384908703848A6
:1048B0000570FDF7D7FCDFF8DC804046FDF7C4F853
:1048C000354F386920F00200386141F2111140463D
:1048D000FDF7CCF8386900E00BE020F0010038610A
:1048E000FDF7B6FC3088484586D12078E070BDE8F9
:1048F000F09F0D21284601F0B9FA1FA001F0FCFA43
:104900000D21012001F0B2FA1EA001F0F5FA0021FC
:10491000207801F0ABFA84F802A0FFF71FFE002216
:1049200004215F465846FDF748FE0122082138461B
:10493000FDF743FE6570358001F0E8FAFDF792FC63
:10494000154F386920F002003861DFF84880404692
:10495000FDF77AF80021BAE79C000020234D414E74
:1049600055414C00234155544F2850494C4F542930
:1049700000000000780000202A000000000C014028
:104980000030004020000000060000200A00002047
:1049900007000020C0FC0108002002403EB50024B2
:1049A00010480094019402940D49846001600473DE
:1049B0000475012505614FF460214460C161FDF774
:1049C000E5F808B1FDF73EF8CDE900456946054830
:1049D0000294FDF759F8002801D0FDF733F83EBDE9
:1049E00000240140E80100203EB500241148009455
:1049F000019402940E4984600160047304750125DA
:104A000005614FF460214460C161FDF7BFF808B152
:104A1000FDF718F80220CDE9000569460294054823
:104A2000FDF732F8002801D0FDF70CF83EBD00007C
:104A30000028014018020020094808B5416941F0EA
:104A4000010141614069002200F00100009011461F
:104A50000F20FDF7F7FFBDE808400F20FDF7E4BF8A
:104A600000100240F0B585B03848002503958169F3
:104A700041F010018161816901F0100104918169A7
:104A800041F020018161816901F020010491816977
:104A900041F004018161816901F00401049181699F
:104AA00041F0080181618069294E00F008000490FE
:104AB00049F6F810CDE9000601246946029425481C
:104AC000FDF786FCCDE90046234F6946384602943F
:104AD000FDF77EFC46F23C1002268DE87100694627
:104AE0003846FDF775FCE003CDE90005CDE9024647
:104AF00069463846FDF76CFC002211460620FDF79A
:104B0000A1FF0620FDF790FF002211460920FDF7C6
:104B100099FF0920FDF788FF002211460A20FDF7C2
:104B200091FF0A20FDF780FF002211461720FDF7B4
:104B300089FF1720FDF778FF002211462820FDF796
:104B400081FF2820FDF770FF05B0F0BD0010024086
:104B50000000211000080140000C01400D4810B574
:104B60000B4901600C49416000214FF48042816093
:104B7000C0E9031241618161C1610162FDF742FD3B
:104B8000002803D0BDE81040FCF75CBF10BD00005A
:104B90000054004048020020A0860100094810B5DA
:104BA000074A002102604A1EC0E90121FEF738FBD6
:104BB000002803D0BDE81040FCF744BF10BD000042
:104BC000002800409C02002010B586B00024174841
:104BD000009401940294039404944FF0804105944E
:104BE00001604FF4E151C0E901146421C0E90314EC
:104BF0008461FEF7C1FC08B1FCF724FF4FF480503C
:104C0000009069460948FEF768FD08B1FCF71AFFF5
:104C1000049404A905480594FEF77AFC08B1FCF752
:104C200011FF0248FEF71AFD06B010BD5801002022
:104C300010B586B00024184800940194029403949F
:104C400004941449059401601449C0E901144FF417
:104C50007A71C0E9031480218161FEF78DFC08B1EF
:104C6000FCF7F0FE4FF48050009069460A48FEF7CA
:104C700034FD08B1FCF7E6FE049404A90648059447
:104C8000FEF746FC08B1FCF7DDFE0348FEF7E6FC44
:104C900006B010BD000400401001002040190100C2
:104CA00010B586B00024184800940194029403942F
:104CB00004941449059401601449C0E9011442F2B6
:104CC0001071C0E903148461FEF756FC08B1FCF7CB
:104CD000B9FE4FF48050009069460B48FEF7FDFC8A
:104CE00008B1FCF7AFFE049404A907480594FEF749
:104CF0000FFC08B1FCF7A6FE0348FEF7AFFC06B0B8
:104D000010BD000000080040A00100204019010073
:104D10000C4810B50A4901604FF4965141600021DA
:104D200081600C22C160C0E904128161C161FFF79A
:104D3000D3F9002803D0BDE81040FCF783BE10BDB6
:104D400000380140B4000020FEE7FEE7704701098B
:104D500001EB810100F00F0000EB4100C0B2704791
:104D600070B50446FDF72EFC05464FF47A7606E052
:104D7000FDF728FC401BB04201D9032070BD20681C
:104D800040688006F4D52068416841F01001416018
:104D9000002070BD70B504460068416821F0100124
:104DA0004160FDF70FFC05464FF47A7607E000BF3F
:104DB000FDF708FC401BB04201D9032070BD2068FC
:104DC00040688006F4D5002070BD006881698AB211
:104DD000C1698BB2816989B28A4203D0C06961F32B
:104DE0001F40704743EA02407047F0B56424C1EBAE
:104DF000C1030927A500072603EB01130329B3FB11
:104E0000F7F100F5FA60114401440AD2401EB0FBEC
:104E1000F4F201EB9001B0FBF5F0891A0844001D93
:104E200008E0B0FBF4F201EB9001B0FBF5F0891A59
:104E30000844801CB0FBF6F106FB1100C0B2F0BDC7
:104E400070B50D4606460024FFF78AFF48B9316861
:104E5000280C88613168A8B2C8613046FFF79AFF14
:104E600000B10124204670BD7047FDF785BD30B507
:104E700093B028216846FBF725FB14210AA8FBF70D
:104E800021FB002401210F9411940520129400901D
:104E9000CDE9024110944FF4803001900225049135
:104EA000CDE907504FF4E01009906846FDF7A6FFE2
:104EB00008B172B6FEE70F20CDE90A054FF4806015
:104EC000CDE90C4002210AA80E94FDF7BBFE08B103
:104ED00072B6FEE703200F904FF480701090C0016F
:104EE00011900FA8FDF738FE002801D072B6FEE73A
:104EF00013B030BD704700000148FEF75DBC0000F4
:104F0000580100200148FEF757BC000010010020A6
:104F10000148FEF751BC0000A0010020F0B5026876
:104F2000164B174C174D4FF08047984205D0B842AA
:104F300003D0A04201D0A84203D122F070064A68F3
:104F40003243984205D0B84203D0A04201D0A842D3
:104F500003D122F44074CA6822434C6922F08002D3
:104F6000224302608A68C2620A688262984201D162
:104F70000969016301214161F0BD0000002C01407D
:104F8000000400400008004010B5846842EA032293
:104F900024F47F440A432243826010BD826822F0D9
:104FA00070020A4342F007018160704710B5036A3E
:104FB000046A24F001040462846924F0F00444EAE1
:104FC000021423F00A020A438461026210BD10B584
:104FD000036A046A24F010040462846923F0A003C5
:104FE00024F4704444EA023243EA0111826101620E
:104FF00010BD10B5406A0021C185C184FEF72CFFA9
:1050000010BD70B5446A2068406994F84110C0F33F
:10501000C0100025212904D118B1E584204600F0F4
:105020008EF82068406994F84210C0F3801022295D
:1050300004D118B1E585204600F05AF8606C40F0C4
:10504000100060642046FEF707FF70BD10B50146F2
:10505000406A096809684FF0000289062ED4C285AB
:1050600001680C3151E8003F23F4807341E80034BB
:10507000002CF5D10168143151E8003F23F0010301
:1050800041E80034002CF5D10168143151E8003FAB
:1050900023F0400341E80034002CF5D1202180F8B2
:1050A0004210016B012909D101680C3151E8003F20
:1050B00023F0100341E80034002CF5D14263016B6A
:1050C000012902D0FFF792F810BD818DFEF7ECFDAB
:1050D00010BD10B5406A01214163016B012902D066
:1050E000FFF785F810BD818D4908FEF7DDFD10BD85
:1050F00001680C3151E8002F22F4907241E800233E
:10510000002BF5D10168143151E8002F22F0010283
:1051100041E80023002BF5D1016B012909D1016879
:105120000C3151E8002F22F0100241E80023002B3F
:10513000F5D1202180F842100021016370470168F9
:105140000C3151E8002F22F0C00241E80023002B6F
:10515000F5D1202180F84110704708B590F8421031
:10516000222901D0022008BD82684FF480539A4260
:1051700001D1016921B1816A9A421BD04AB10AE08A
:105180000268816A5268C2F308020A80816A891C37
:1051900008E0026972B10268526802F07F020A7088
:1051A000816A491C8162C18D491E0904090CC185AF
:1051B00003D01BE002685268F1E70168CA6822F078
:1051C0002002CA600168CA6822F48072CA6001685D
:1051D0004A6922F001024A61202180F84210002130
:1051E0004163026B012A03D0FFF700F8002008BDDD
:1051F000016301680C3151E8002F22F0100241E8F0
:105200000023002BF5D101680A68D20602D50A688E
:1052100049680091818DFEF747FDE7E770B50446C8
:1052200000680169E26821F440511143016121697C
:10523000A0680843616908432168CA6841F20C63A9
:105240009A430243CA6020684169A26921F440710F
:10525000114341611E492068884202D1FDF798FD43
:1052600001E0FDF785FD00EBC00101EB0012606875
:1052700064218000B2FBF0F3B3FBF1F36FF018068A
:105280007343B2FBF0F5B2FBF0F605EB8305322376
:1052900003EB0515B5FBF1F5B6FBF1F605F0F005EE
:1052A00005EB0615B2FBF0F6B2FBF0F0B0FBF1F047
:1052B0006FF01802504306EB800003EB0010B0FBC8
:1052C000F1F0216800F00F002844886070BD0000F4
:1052D0000038014038B581620446828500201346BB
:1052E0006064222284F84220E56B1B4AAA62E56BC7
:1052F0001A4AEA62E56B1A4A2A63E26B50630A466D
:105300002168E06B091DFCF759FF206801684068BF
:105310000090206948B120680C3050E8001F41F42B
:10532000807140E80012002AF5D12068143050E85E
:10533000001F41F0010140E80012002AF5D1206869
:10534000143050E8001F41F0400140E80012002AEC
:10535000F5D1002038BD00004D500008D3500008A2
:10536000035000080148FEF779BD0000B40000209A
:10537000FEE700002DE9F04700F01CFD0021084683
:1053800000F074FD16A000F0B7FDFFF7EAF8194E23
:105390004FF4C87A4AF6AA25DFF85C80DFF85C9003
:1053A000174CF71416E03560FFF7DBF8D8F800105B
:1053B0004FF0010049454FF0040103DA00F056FDBB
:1053C00010A002E000F052FD11A000F095FD504643
:1053D000FCF72CFF2088B842E5D1BDE8F08700003B
:1053E000202023564F4C5441474520534F5552439C
:1053F000453A2000003000401000002000803B456E
:105400009C000020444320504F57455200000000AC
:10541000414320504F574552000000002DE9F04114
:1054200000F0C8FC0021084600F020FD27A000F095
:1054300063FD0021012000F019FD28A000F05CFDB3
:10544000FFF78FF8294C4FF4006739E028494AF6F6
:10545000AA2008602848274D2946006801F0A4FFCB
:10546000264E314601F0CAFE01F09CFE02460B4674
:1054700023A12548FAF7BEFE4FF4FA70FCF7D6FEDA
:1054800022482946006801F08FFF314601F0B6FE40
:1054900001F088FE02461C480B4619A11438FAF7A1
:1054A000A9FE0E21002000F0E1FC1748143800F09E
:1054B00023FD0E21012000F0D9FC134800F01CFD53
:1054C0002088B842C2D1BDE8F081000023564F4C7D
:1054D000544147452044433A0000000023564F4CB6
:1054E000544147452041433A000000009C00002001
:1054F000003000400000C0411000002000F07F4557
:1055000025302E3266560000F204002014000020E0
:10551000490050EAC12018BF04204A0D18BF40F0CE
:10552000010040F2FF72B2EB515F08BF40F0020091
:10553000012808BF052070470907090E002804DB71
:1055400000F1E02080F80014704700F00F0000F137
:10555000E02080F8141D704730380A2801D201205D
:1055600070470020704781070CD16421B0FBF1F235
:1055700001FB120141B94FF4C871B0FBF1F201FB1C
:10558000120008B1002070470120704770B500F08C
:1055900011FC0221084600F069FCFEF7E2FF27A09B
:1055A00000F0AAFC294C4FF4006543E028494AF674
:1055B000AA20086000260021084600F057FC25A01C
:1055C00000F09AFCFA20FCF731FE2088A84234D083
:1055D000FCF7D6F90021084600F048FC23A000F0B3
:1055E0008BFCFA20FCF722FE2088A84225D0FCF78D
:1055F000C7F90021084600F039FC22A000F07CFC2D
:10560000FA20FCF713FE2088A84216D0FCF7B8F960
:105610000021084600F02AFC20A000F06DFCFA20D2
:10562000FCF704FE2088A84207D0FCF7A9F9761CF5
:10563000032EC0DD2088A842B8D170BD434F4E4E26
:10564000454354494F4E3A20000000009C00002082
:10565000003000402A2A2A202020636865636B6995
:105660006E672020202A2A2A000000002A2A2A2ADF
:105670002020636865636B696E6720202A2A2A2AC6
:10568000000000002A2A2A2A2A20636865636B69C1
:105690006E67202A2A2A2A2A000000002A2A2A2A9B
:1056A0002A2A636865636B696E672A2A2A2A2A2A6E
:1056B0000000000070B552481722A0F10E01514CB5
:1056C0004988435CC11F001F851F9B1F092B7DD28A
:1056D000DFE803F00594361D944F94946900287810
:1056E00090B1401E28700878401E087005210120E6
:1056F00000F0BCFB2A7844A14548FAF77BFD4448FA
:1057000000F0FAFB062116E02A700A70EEE76878CE
:1057100098B1401E68704878401E487008210120EA
:1057200000F0A4FB6A7838A13948FAF763FD3848DD
:1057300000F0E2FB092101204EE03B206870ECE71D
:10574000E178172902D2E270C27004E0491EE170CC
:10575000C178491EC1700721022000F087FBE27862
:1057600029A12B48FAF746FD294800F0C5FB08217E
:1057700031E06178012913D091B1491E61704178FF
:10578000491E41700A21022000F070FB62781EA1C0
:105790001F48FAF72FFD1E4800F0AEFB0B211AE060
:1057A0000C216170EDE7A178012919D0C1B1491E22
:1057B000A1708178491E81700D21022000F056FBF6
:1057C000A27811A11248FAF715FD00E016E0104882
:1057D00000F092FB0E210220BDE8704000F046BBB5
:1057E0001F21A17081700E21022000F03FFBA278E2
:1057F000BDE8704004A10648FAF7FCBC70BD00008B
:1058000058000020200000202530326400000000F5
:10581000FC0000202DE9F04F8B4D8C4889B04FF0F3
:10582000010985F80090047805F1020B02218BF83C
:1058300000908BF8011003218BF8021000266E7087
:105840000621484600F012FBFEF788FEFEF789FEAF
:1058500000F0B0FA0021084600F008FB7CA000F040
:105860004BFBFF2C03D0032C0FD227460EE0012167
:10587000084600F0FBFA7CA000F03EFB09B04FF4B4
:10588000FA60BDE8F04FFCF7D1BC03276E70DFF87B
:10589000ECA135E000235046E96811F802CB00F88E
:1058A00003C05B1CE9600C2BF6DBC1790DF1140E13
:1058B00090F80BC090F80A80037A8EE80A11C1783C
:1058C0000DF1040E90F806C090F8058003798EE87B
:1058D0000A114178009169489AF8003068A110389F
:1058E000521CFAF787FC69781BF80100002100F0D0
:1058F000BDFA6248103800F0FFFA6878401C687002
:105900006A78BA42C6D30121084600F0AFFAFEF722
:1059100025FE4E48624F1030E8600BE0DFF884A1AE
:105920004AF6AA28CAF800803888802809D0B0F53D
:10593000004F45D03888B0F5006FEFD109B0BDE811
:10594000F08F012C43D0022C02D0032C06D008E0AB
:10595000287801282ED0022839D002E028780328A0
:1059600006D02878401E10F0FF00287002D021E0F9
:10597000022067E085F800909BF800105846491E09
:1059800011F0FF038BF800309BF80110A1F1010129
:10599000CAB28BF801209BF80210A1F10101C9B233
:1059A0008BF8021000D1047002B94470F1BB8BF87F
:1059B000024043E00121287800F058FA3E80B1E728
:1059C000012C04D0022C05D0032C09D00DE085F861
:1059D0000090EFE728780128CAD00228EAD004E036
:1059E00028780328E6D002282BD02878401CC0B2A3
:1059F00028700328DED9032028709BF80010584631
:105A0000491CCBB28BF800309BF80110491CCAB27C
:105A10008BF801209BF80210491CC9B28BF80210C8
:105A2000A34201D980F80090A24200E006E001D92B
:105A300080F80190A14201D98BF8029001F0F0F8B2
:105A4000B8E703202870B5E760000020F0F90108EE
:105A500020484F55523A4D494E20204D4F4E544804
:105A60002F444159000000004E4F54204556454EEA
:105A7000542053415645442059455400D204002037
:105A80002025642E256325633A256325632025633D
:105A90002563202020256325632F256325630000CF
:105AA0009C000020003000402DE9F05F05460022F8
:105AB00044494548FDF782FB002244494248FDF72E
:105AC0002DFB404842A1437802784448FAF792FB04
:105AD0003E48424C42A183784278E01DFAF78AFBA7
